{
  "_format": "hh-sol-artifact-1",
  "contractName": "DEX",
  "sourceName": "contracts/DEX.sol",
  "abi": [
    {
      "inputs": [
        {
          "internalType": "address",
          "name": "_tokenA",
          "type": "address"
        },
        {
          "internalType": "address",
          "name": "_tokenB",
          "type": "address"
        }
      ],
      "stateMutability": "nonpayable",
      "type": "constructor"
    },
    {
      "anonymous": false,
      "inputs": [
        {
          "indexed": true,
          "internalType": "address",
          "name": "provider",
          "type": "address"
        },
        {
          "indexed": false,
          "internalType": "uint256",
          "name": "amountA",
          "type": "uint256"
        },
        {
          "indexed": false,
          "internalType": "uint256",
          "name": "amountB",
          "type": "uint256"
        },
        {
          "indexed": false,
          "internalType": "uint256",
          "name": "liquidityMinted",
          "type": "uint256"
        }
      ],
      "name": "LiquidityAdded",
      "type": "event"
    },
    {
      "anonymous": false,
      "inputs": [
        {
          "indexed": true,
          "internalType": "address",
          "name": "provider",
          "type": "address"
        },
        {
          "indexed": false,
          "internalType": "uint256",
          "name": "amountA",
          "type": "uint256"
        },
        {
          "indexed": false,
          "internalType": "uint256",
          "name": "amountB",
          "type": "uint256"
        },
        {
          "indexed": false,
          "internalType": "uint256",
          "name": "liquidityBurned",
          "type": "uint256"
        }
      ],
      "name": "LiquidityRemoved",
      "type": "event"
    },
    {
      "anonymous": false,
      "inputs": [
        {
          "indexed": true,
          "internalType": "address",
          "name": "trader",
          "type": "address"
        },
        {
          "indexed": true,
          "internalType": "address",
          "name": "tokenIn",
          "type": "address"
        },
        {
          "indexed": true,
          "internalType": "address",
          "name": "tokenOut",
          "type": "address"
        },
        {
          "indexed": false,
          "internalType": "uint256",
          "name": "amountIn",
          "type": "uint256"
        },
        {
          "indexed": false,
          "internalType": "uint256",
          "name": "amountOut",
          "type": "uint256"
        }
      ],
      "name": "Swap",
      "type": "event"
    },
    {
      "inputs": [
        {
          "internalType": "uint256",
          "name": "amountA",
          "type": "uint256"
        },
        {
          "internalType": "uint256",
          "name": "amountB",
          "type": "uint256"
        }
      ],
      "name": "addLiquidity",
      "outputs": [
        {
          "internalType": "uint256",
          "name": "liquidityMinted",
          "type": "uint256"
        }
      ],
      "stateMutability": "nonpayable",
      "type": "function"
    },
    {
      "inputs": [
        {
          "internalType": "uint256",
          "name": "amountIn",
          "type": "uint256"
        },
        {
          "internalType": "uint256",
          "name": "reserveIn",
          "type": "uint256"
        },
        {
          "internalType": "uint256",
          "name": "reserveOut",
          "type": "uint256"
        }
      ],
      "name": "getAmountOut",
      "outputs": [
        {
          "internalType": "uint256",
          "name": "amountOut",
          "type": "uint256"
        }
      ],
      "stateMutability": "pure",
      "type": "function"
    },
    {
      "inputs": [],
      "name": "getPrice",
      "outputs": [
        {
          "internalType": "uint256",
          "name": "price",
          "type": "uint256"
        }
      ],
      "stateMutability": "view",
      "type": "function"
    },
    {
      "inputs": [],
      "name": "getReserves",
      "outputs": [
        {
          "internalType": "uint256",
          "name": "_reserveA",
          "type": "uint256"
        },
        {
          "internalType": "uint256",
          "name": "_reserveB",
          "type": "uint256"
        }
      ],
      "stateMutability": "view",
      "type": "function"
    },
    {
      "inputs": [
        {
          "internalType": "address",
          "name": "",
          "type": "address"
        }
      ],
      "name": "liquidity",
      "outputs": [
        {
          "internalType": "uint256",
          "name": "",
          "type": "uint256"
        }
      ],
      "stateMutability": "view",
      "type": "function"
    },
    {
      "inputs": [
        {
          "internalType": "uint256",
          "name": "liquidityAmount",
          "type": "uint256"
        }
      ],
      "name": "removeLiquidity",
      "outputs": [
        {
          "internalType": "uint256",
          "name": "amountA",
          "type": "uint256"
        },
        {
          "internalType": "uint256",
          "name": "amountB",
          "type": "uint256"
        }
      ],
      "stateMutability": "nonpayable",
      "type": "function"
    },
    {
      "inputs": [],
      "name": "reserveA",
      "outputs": [
        {
          "internalType": "uint256",
          "name": "",
          "type": "uint256"
        }
      ],
      "stateMutability": "view",
      "type": "function"
    },
    {
      "inputs": [],
      "name": "reserveB",
      "outputs": [
        {
          "internalType": "uint256",
          "name": "",
          "type": "uint256"
        }
      ],
      "stateMutability": "view",
      "type": "function"
    },
    {
      "inputs": [
        {
          "internalType": "uint256",
          "name": "amountBIn",
          "type": "uint256"
        }
      ],
      "name": "swapForA",
      "outputs": [
        {
          "internalType": "uint256",
          "name": "amountAOut",
          "type": "uint256"
        }
      ],
      "stateMutability": "nonpayable",
      "type": "function"
    },
    {
      "inputs": [
        {
          "internalType": "uint256",
          "name": "amountAIn",
          "type": "uint256"
        }
      ],
      "name": "swapForB",
      "outputs": [
        {
          "internalType": "uint256",
          "name": "amountBOut",
          "type": "uint256"
        }
      ],
      "stateMutability": "nonpayable",
      "type": "function"
    },
    {
      "inputs": [],
      "name": "tokenA",
      "outputs": [
        {
          "internalType": "address",
          "name": "",
          "type": "address"
        }
      ],
      "stateMutability": "view",
      "type": "function"
    },
    {
      "inputs": [],
      "name": "tokenB",
      "outputs": [
        {
          "internalType": "address",
          "name": "",
          "type": "address"
        }
      ],
      "stateMutability": "view",
      "type": "function"
    },
    {
      "inputs": [],
      "name": "totalLiquidity",
      "outputs": [
        {
          "internalType": "uint256",
          "name": "",
          "type": "uint256"
        }
      ],
      "stateMutability": "view",
      "type": "function"
    }
  ],
  "bytecode": "0x608060405234801561001057600080fd5b50604051610d85380380610d8583398101604081905261002f9161007c565b600080546001600160a01b039384166001600160a01b031991821617909155600180549290931691161790556100af565b80516001600160a01b038116811461007757600080fd5b919050565b6000806040838503121561008f57600080fd5b61009883610060565b91506100a660208401610060565b90509250929050565b610cc7806100be6000396000f3fe608060405234801561001057600080fd5b50600436106100cf5760003560e01c80635c7249851161008c5780639c8f9f23116100665780639c8f9f23146101945780639cd441da146101a7578063b8c876b1146101ba578063dc5fa6c5146101da57600080fd5b80635c724985146101665780635f64b55b1461017957806398d5fdca1461018c57600080fd5b8063054d50d4146100d45780630902f1ac146100fa5780630d5d457f146101165780630fc63d101461012957806315770f921461015457806319e36f3b1461015d575b600080fd5b6100e76100e2366004610b3f565b6101e3565b6040519081526020015b60405180910390f35b6002546003545b604080519283526020830191909152016100f1565b6100e7610124366004610b6b565b6102c6565b60005461013c906001600160a01b031681565b6040516001600160a01b0390911681526020016100f1565b6100e760045481565b6100e760035481565b6100e7610174366004610b6b565b61044d565b60015461013c906001600160a01b031681565b6100e76105cb565b6101016101a2366004610b6b565b610622565b6100e76101b5366004610b84565b610859565b6100e76101c8366004610ba6565b60056020526000908152604090205481565b6100e760025481565b60008084116102295760405162461bcd60e51b815260206004820152600d60248201526c125b9d985b1a59081a5b9c1d5d609a1b60448201526064015b60405180910390fd5b6000831180156102395750600082115b6102785760405162461bcd60e51b815260206004820152601060248201526f496e76616c696420726573657276657360801b6044820152606401610220565b6000610286856103e5610bec565b905060006102948483610bec565b90506000826102a5876103e8610bec565b6102af9190610c03565b90506102bb8183610c16565b979650505050505050565b600080546040516323b872dd60e01b81526001600160a01b03909116906323b872dd906102fb90339030908790600401610c38565b6020604051808303816000875af115801561031a573d6000803e3d6000fd5b505050506040513d601f19601f8201168201806040525081019061033e9190610c5c565b5061034e826002546003546101e3565b905081600260008282546103629190610c03565b92505081905550806003600082825461037b9190610c7e565b909155505060015460405163a9059cbb60e01b8152336004820152602481018390526001600160a01b039091169063a9059cbb906044016020604051808303816000875af11580156103d1573d6000803e3d6000fd5b505050506040513d601f19601f820116820180604052508101906103f59190610c5c565b5060015460005460408051858152602081018590526001600160a01b03938416939092169133917fcd3829a3813dc3cdd188fd3d01dcf3268c16be2fdd2dd21d0665418816e4606291015b60405180910390a4919050565b6001546040516323b872dd60e01b81526000916001600160a01b0316906323b872dd9061048290339030908790600401610c38565b6020604051808303816000875af11580156104a1573d6000803e3d6000fd5b505050506040513d601f19601f820116820180604052508101906104c59190610c5c565b506104d5826003546002546101e3565b905081600360008282546104e99190610c03565b9250508190555080600260008282546105029190610c7e565b909155505060005460405163a9059cbb60e01b8152336004820152602481018390526001600160a01b039091169063a9059cbb906044016020604051808303816000875af1158015610558573d6000803e3d6000fd5b505050506040513d601f19601f8201168201806040525081019061057c9190610c5c565b5060005460015460408051858152602081018590526001600160a01b03938416939092169133917fcd3829a3813dc3cdd188fd3d01dcf3268c16be2fdd2dd21d0665418816e460629101610440565b6000806002541161060d5760405162461bcd60e51b815260206004820152600c60248201526b4e6f206c697175696469747960a01b6044820152606401610220565b60025460035461061d9190610c16565b905090565b33600090815260056020526040812054819083111561067a5760405162461bcd60e51b81526020600482015260146024820152734e6f7420656e6f756768206c697175696469747960601b6044820152606401610220565b60045460025461068a9085610bec565b6106949190610c16565b9150600454600354846106a79190610bec565b6106b19190610c16565b336000908152600560205260408120805492935085929091906106d5908490610c7e565b9250508190555082600460008282546106ee9190610c7e565b9250508190555081600260008282546107079190610c7e565b9250508190555080600360008282546107209190610c7e565b909155505060005460405163a9059cbb60e01b8152336004820152602481018490526001600160a01b039091169063a9059cbb906044016020604051808303816000875af1158015610776573d6000803e3d6000fd5b505050506040513d601f19601f8201168201806040525081019061079a9190610c5c565b5060015460405163a9059cbb60e01b8152336004820152602481018390526001600160a01b039091169063a9059cbb906044016020604051808303816000875af11580156107ec573d6000803e3d6000fd5b505050506040513d601f19601f820116820180604052508101906108109190610c5c565b50604080518381526020810183905290810184905233907f1dc8bb69df2b8e91fbdcbfcf93d951b3f0000f085a95fe3f7946d6161439245d9060600160405180910390a2915091565b600080546040516323b872dd60e01b81526001600160a01b03909116906323b872dd9061088e90339030908890600401610c38565b6020604051808303816000875af11580156108ad573d6000803e3d6000fd5b505050506040513d601f19601f820116820180604052508101906108d19190610c5c565b506001546040516323b872dd60e01b81526001600160a01b03909116906323b872dd9061090690339030908790600401610c38565b6020604051808303816000875af1158015610925573d6000803e3d6000fd5b505050506040513d601f19601f820116820180604052508101906109499190610c5c565b5060045460000361096d576109666109618385610bec565b610ab5565b90506109ad565b6109aa600254600454856109819190610bec565b61098b9190610c16565b60035460045461099b9086610bec565b6109a59190610c16565b610b25565b90505b600081116109fd5760405162461bcd60e51b815260206004820152601d60248201527f496e73756666696369656e74206c6971756964697479206d696e7465640000006044820152606401610220565b3360009081526005602052604081208054839290610a1c908490610c03565b925050819055508060046000828254610a359190610c03565b925050819055508260026000828254610a4e9190610c03565b925050819055508160036000828254610a679190610c03565b9091555050604080518481526020810184905290810182905233907f64b83944e79c3ce8d4c297411de637c3e102d064677aac0c163976ebdcd6f50e9060600160405180910390a292915050565b60006003821115610b165750806000610acf600283610c16565b610ada906001610c03565b90505b81811015610b1057905080600281610af58186610c16565b610aff9190610c03565b610b099190610c16565b9050610add565b50919050565b8115610b20575060015b919050565b6000818310610b345781610b36565b825b90505b92915050565b600080600060608486031215610b5457600080fd5b505081359360208301359350604090920135919050565b600060208284031215610b7d57600080fd5b5035919050565b60008060408385031215610b9757600080fd5b50508035926020909101359150565b600060208284031215610bb857600080fd5b81356001600160a01b0381168114610bcf57600080fd5b9392505050565b634e487b7160e01b600052601160045260246000fd5b8082028115828204841417610b3957610b39610bd6565b80820180821115610b3957610b39610bd6565b600082610c3357634e487b7160e01b600052601260045260246000fd5b500490565b6001600160a01b039384168152919092166020820152604081019190915260600190565b600060208284031215610c6e57600080fd5b81518015158114610bcf57600080fd5b81810381811115610b3957610b39610bd656fea2646970667358221220da67a1509c45b3db14ee2e73abf5bd41f7162fb9efdfd712c3d0bbd72c18355964736f6c63430008140033",
  "linkReferences": {},
  "deployedLinkReferences": {}
}